:020000040800F2
:1000000000500020891800086102000863020008FF
:10001000650200086702000869020008000000008D
:100020000000000000000000000000006B0200085B
:100030006D020008000000006F0200087102000855
:10004000D1180008D1180008D1180008D1180008EC
:10005000D1180008D1180008D1180008D1180008DC
:10006000D1180008D1180008D1180008D1180008CC
:10007000D1180008D1180008D1180008D1180008BC
:10008000D1180008D1180008D1180008D1180008AC
:10009000D1180008D1180008D1180008D11800089C
:1000A000D1180008D1180008D1180008D11800088C
:1000B000D1180008D1180008D1180008D11800087C
:1000C000D1180008D1180008D1180008D11800086C
:1000D000D1180008D1180008D1180008D11800085C
:1000E000D1180008D1180008D1180008000000003D
:1000F0000000000000000000000000000000000000
:0C01000000000000000000005FF808F1A3
:10010C000348044B834202D0034B03B1184770479A
:10011C000C0000200C000020000000000548064BDD
:10012C001B1AD90F01EBA301491002D0034B03B1E9
:10013C00184770470C0000200C0000200000000045
:10014C0010B5064C237843B9FFF7DAFF044B13B113
:10015C000448AFF300800123237010BD0C00002075
:10016C00000000004819000808B5054B1BB10549F3
:10017C000548AFF30080BDE80840FFF7CFBF00BFD4
:10018C0000000000100000204819000872B6FEE7BD
:10019C0000B591B02822002106A801F094FB0023A1
:1001AC0001930293039304930593012206924FF457
:1001BC00803307930A9202220D920E934FF4E013B0
:1001CC000F9306A800F0E8F880B90F2301930221E1
:1001DC000291002303934FF480620492059301A8CB
:1001EC0000F00CFB20B911B05DF804FBFFF7CEFF5B
:1001FC00FFF7CCFF08B500F081F8FFF7C9FF00F05E
:10020C0007F800F041FD01F01DF901F017FBFEE7C6
:10021C0084B00F4B9A6942F020029A619A6902F0FD
:10022C0020020192019A9A6942F004029A619A6939
:10023C0002F004020292029A9A6942F008029A6150
:10024C009B6903F008030393039B04B0704700BF42
:10025C0000100240FEE7FEE7FEE7FEE7FEE7704710
:10026C007047704708B500F05BF808BD82B00E4BC4
:10027C009A6942F001029A619A6902F001020092B5
:10028C00009ADA6942F08052DA61DB6903F080533C
:10029C000193019B054A536823F0E06343F000731C
:1002AC00536002B0704700BF0010024000000140D4
:1002BC0010B504460E4B1A784FF47A73B3FBF2F375
:1002CC000C4A1068B0FBF3F000F0C8FC68B90F2CB6
:1002DC0001D901200AE0002221464FF0FF3000F046
:1002EC00ADFC054B1C60002000E0012010BD00BFE0
:1002FC0000000020080000200400002008B5074A78
:10030C00136843F010031360032000F085FC0F20EA
:10031C00FFF7CEFFFFF7AAFF002008BD0020024028
:10032C00034A1168034B1B780B441360704700BFE2
:10033C002800002000000020014B1868704700BF07
:10034C002800002038B50446FFF7F6FF0546B4F147
:10035C00FF3F02D0044B1B781C44FFF7EDFF401B02
:10036C00A042FAD338BD00BF0000002082B0084B79
:10037C001B68084AA2FB03235B0A00FB03F30193EF
:10038C0000BF019B5A1E0192002BF9D102B070479D
:10039C0008000020D34D6210002800F0F18170B5E8
:1003AC0082B00446036813F0010F2CD0994B5B68A4
:1003BC0003F00C03042B1DD0964B5B6803F00C036D
:1003CC00082B12D06368B3F5803F41D0002B55D178
:1003DC0003F1804303F504331A6822F480321A6067
:1003EC001A6822F480221A6037E08A4B5B6813F497
:1003FC00803FE7D0874B1B6813F4003F03D0636842
:10040C00002B00F0BF81236813F0020F75D0814BD5
:10041C005B6813F00C0F5FD07E4B5B6803F00C0332
:10042C00082B54D02369002B00F08A807A4B0122D0
:10043C001A60FFF781FF0546764B1B6813F0020F1D
:10044C0075D1FFF779FF401B0228F5D903209EE1F7
:10045C00704A136843F480331360636843B3FFF747
:10046C006BFF05466B4B1B6813F4003FCBD1FFF7BA
:10047C0063FF401B6428F5D9032088E1B3F5A02F56
:10048C0009D0644B1A6822F480321A601A6822F47C
:10049C0080221A60E1E703F18043A3F53C331A682C
:1004AC0042F480221A601A6842F480321A60D4E74F
:1004BC00FFF742FF0546574B1B6813F4003FA2D0D1
:1004CC00FFF73AFF401B6428F5D903205FE1514B3D
:1004DC005B6813F4803FA5D14E4B1B6813F0020FE1
:1004EC0003D02369012B40F04F814A4A136823F053
:1004FC00F803616943EAC1031360236813F0080F22
:10050C0033D0A369002B5CD0434B0122C3F8802469
:10051C00FFF712FF05463F4B5B6A13F0020F21D128
:10052C00FFF70AFF401B0228F5D903202FE1394AB7
:10053C00136823F0F803616943EAC1031360DCE735
:10054C00354B00221A60FFF7F7FE0546314B1B684E
:10055C0013F0020FD1D0FFF7EFFE401B0228F5D9A4
:10056C00032014E10120FFF701FF236813F0040FAF
:10057C0000F09680274BDB6913F0805F34D1254B5C
:10058C00DA6942F08052DA61DB6903F0805301933F
:10059C00019B0125214B1B6813F4807F26D0E36857
:1005AC00012B3DD0002B53D103F1804303F50433D1
:1005BC001A6A22F001021A621A6A22F004021A6202
:1005CC0033E0154B0022C3F88024FFF7B5FE054637
:1005DC00104B5B6A13F0020FC7D0FFF7ADFE401B48
:1005EC000228F5D90320D2E00025D3E70B4A136883
:1005FC0043F480731360FFF79FFE0646074B1B689E
:10060C0013F4807FCBD1FFF797FE801B6428F5D9BC
:10061C000320BCE000100240000042420070004089
:10062C005F4A136A43F001031362E36833B3FFF7C5
:10063C0083FE06465A4B1B6A13F0020F2FD1FFF7AD
:10064C007BFE801B41F288339842F3D903209EE055
:10065C00052B09D0524B1A6A22F001021A621A6A4F
:10066C0022F004021A62E0E74D4B1A6A42F00402CF
:10067C001A621A6A42F001021A62D6E7FFF75CFEB0
:10068C000646474B1B6A13F0020F08D0FFF754FEC7
:10069C00801B41F288339842F3D9032077E0E5B907
:1006AC00E369002B72D03E4A526802F00C02082A11
:1006BC0056D0022B17D03B4B00221A66FFF73CFE9C
:1006CC000446374B1B6813F0007F47D0FFF734FE0E
:1006DC00001B0228F5D9032059E0314AD36923F0D5
:1006EC008053D361DCE72F4B00221A66FFF724FE00
:1006FC0005462B4B1B6813F0007F06D0FFF71CFE42
:10070C00401B0228F5D9032041E0236AB3F5803F52
:10071C001AD023494B6823F47413226A606A02438B
:10072C0013434B601F4B01221A66FFF705FE04466C
:10073C001B4B1B6813F0007F0ED1FFF7FDFD001B58
:10074C000228F5D9032022E0154A536823F400331C
:10075C00A1680B435360DCE7002018E0002016E092
:10076C00012B16D00E4B5B6803F48031226A914248
:10077C0011D103F47013626A93420ED1002006E08B
:10078C0001207047012002E0012000E0002002B0AF
:10079C0070BD0120FBE70120F9E70120F7E700BF5E
:1007AC0000100240000042420F4B5B6803F00C0249
:1007BC00082A01D00D487047C3F383420C49885C6A
:1007CC0013F4803F0BD0084B5B68C3F34043094ADA
:1007DC00D35C064A02FB00F0B0FBF3F07047064B0B
:1007EC0003FB00F0704700BF0010024000127A00BB
:1007FC00641900086019000800093D00002800F089
:10080C00A08070B50D460446524B1B6803F00703DD
:10081C008B420BD24F4A136823F007030B43136030
:10082C00136803F007038B4240F08D80236813F0AC
:10083C00020F17D013F0040F04D0474A536843F447
:10084C00E0635360236813F0080F04D0424A5368E6
:10085C0043F460535360404A536823F0F003A1689B
:10086C000B435360236813F0010F31D06368012BE5
:10087C0020D0022B25D0384A126812F0020F64D017
:10088C0035494A6822F0030213434B60FFF754FDCD
:10089C000646314B5B6803F00C036268B3EB820FC6
:1008AC0016D0FFF749FD801B41F288339842F0D9EE
:1008BC00032045E0284A126812F4003FE0D10120E1
:1008CC003EE0254A126812F0007FD9D1012037E0B2
:1008DC00204B1B6803F00703AB420AD91D4A13686F
:1008EC0023F007032B431360136803F00703AB4299
:1008FC002DD1236813F0040F06D0174A536823F444
:10090C00E063E1680B435360236813F0080F07D0D2
:10091C00114A536823F46053216943EAC1035360BD
:10092C00FFF742FF0C4B5B68C3F303130B4AD35C1A
:10093C00D8400B4B18600B4B1868FFF7B9FC002024
:10094C0070BD012070470120FAE70120F8E7012073
:10095C00F6E700BF00200240001002407C1900089E
:10096C000800002004000020014B1868704700BFED
:10097C000800002008B5FFF7F7FF044B5B68C3F3D2
:10098C000223034AD35CD84008BD00BF00100240CC
:10099C007419000870B582B00024A446A1E07E4D05
:1009AC00AB4214D00CD8A5F58015AB420FD005F591
:1009BC007025AB420BD0A5F58015AB4210D106E0EB
:1009CC00764DAB4203D005F58035AB4208D18B6830
:1009DC00002B50D0012B49D04261082400E0CC6898
:1009EC00BEF1FF0F49D806464FEA8C0233680F253B
:1009FC00954023EA050304FA02F2134333604B6873
:100A0C0013F0805F6BD0664B9A6942F001029A61D9
:100A1C009B6903F001030193019B4FEA9C02951C17
:100A2C00604B53F825600CF00305AD000F23AB4071
:100A3C0026EA03065C4B984226D003F58063984265
:100A4C0000F08C8003F58063984200F0898003F5F8
:100A5C008063984216D0042317E0CC680434BFE7B7
:100A6C00CC680834BCE7CC680C34B9E702610824C4
:100A7C00B6E70024B4E70424B2E7061DACF1080283
:100A8C009200B3E7032300E00023AB403343023270
:100A9C00444D45F822304B6813F4801F62D0434A12
:100AAC00936843EA0E0393604B6813F4001F5FD006
:100ABC003E4AD36843EA0E03D3604B6813F4003FFD
:100ACC005CD03A4A536843EA0E0353604B6813F404
:100ADC00803F59D0354A136843EA0E0313600CF17A
:100AEC00010C0B6833FA0CF254D0012202FA0CF20E
:100AFC0003EA020E32EA0303F1D14B68122B3FF6E4
:100B0C004EAF122B3FF66CAF01A555F823F000BF8A
:100B1C00DB090008EB0900086D0A00087F0A0008D1
:100B2C00ED090008ED090008ED090008ED090008C1
:100B3C00ED090008ED090008ED090008ED090008B1
:100B4C00ED090008ED090008ED090008ED090008A1
:100B5C00ED090008670A0008730A0008012394E7EE
:100B6C00022392E7114A936823EA0E0393609BE7F2
:100B7C000E4AD36823EA0E03D3609EE70B4A5368F0
:100B8C0023EA0E035360A1E7084A136823EA0E0315
:100B9C001360A4E702B070BD0000221000003110F9
:100BAC000010024000000140000801400004014018
:100BBC00002808DB0901C9B200F1604000F5614072
:100BCC0080F80013704700F00F000901C9B2014B07
:100BDC001954704714ED00E000B500F00700C0F1A7
:100BEC00070CBCF1040F28BF4FF0040C031D062B9F
:100BFC000FD9C31E4FF0FF3E0EFA0CF021EA000194
:100C0C0099400EFA03FE22EA0E0241EA02005DF858
:100C1C0004FB0023EEE70000074AD36823F4E063EB
:100C2C001B041B0C000200F4E060034343F0BF63A1
:100C3C0043F40033D360704700ED00E010B5044678
:100C4C00054BD868C0F30220FFF7C6FF01462046CB
:100C5C00FFF7AEFF10BD00BF00ED00E00138B0F1B2
:100C6C00807F0BD24FF0E0235861054AF02182F8C7
:100C7C0023100020986107221A61704701207047E9
:100C8C0000ED00E07047000008B50B480B4B03600B
:100C9C000B4B436000238360C3604FF480420261BE
:100CAC0043618361C361036200F0DAF900B908BDE6
:100CBC00FFF76CFAFBE700BF2C000020005400404B
:100CCC00A086010010B586B0002302930393049311
:100CDC0005930268154B9A4201D006B010BD144C16
:100CEC00A36943F00803A361A36903F0080300930D
:100CFC00009B4FF440730293122303930323059339
:100D0C0002A90C48FFF746FE0B4A536843F0E06318
:100D1C0043F002035360E36943F40013E361E369B6
:100D2C0003F400130193019BD7E700BF005400406C
:100D3C0000100240000C01400000014003685A6999
:100D4C0012F4806F01D1002070476FF480625A61F9
:100D5C0000230363202280F83D2080F83E30026C93
:100D6C0042F00402026480F83C30012070472DE907
:100D7C00F04106460C46174698463BE0FFF7DCFA76
:100D8C00069BC01A404502D8B8F1000F32D1012D94
:100D9C0018D033689B6924EA03039BB2B3FA83F33C
:100DAC005B099F4226D100233363202286F83D2025
:100DBC0086F83E30326C42F02002326486F83C30C9
:100DCC00012027E033685B6924EA03039BB2B3FA82
:100DDC0083F35B09E5E733685B6924EA030C1FFACC
:100DEC008CFCBCFA8CFC4FEA5C1C674511D1B8F149
:100DFC00FF3FC3D1C4F30745012DECD033689B6989
:100E0C0024EA030C1FFA8CFCBCFA8CFC4FEA5C1C29
:100E1C00EBE70020BDE8F0812DE9F84305460E46CE
:100E2C009046994653E01A6842F400721A602B6897
:100E3C006FF480625A6100232B63202285F83D20D9
:100E4C0085F83E302A6C42F004022A6485F83C3066
:100E5C0001204AE0FFF770FAA0EB0900404502D8E8
:100E6C00B8F1000F33D1012F17D02B689B6926EAFC
:100E7C0003039BB2003B18BF012343B300232B6336
:100E8C00202285F83D2085F83E302A6C42F0200265
:100E9C002A6485F83C30012027E02B685B6926EA40
:100EAC0003039BB2003B18BF0123E6E72B689C6948
:100EBC0026EA0404A4B2003C18BF0124A4B12B6898
:100ECC005A6912F4806FAED1B8F1FF3FC2D1C6F3AC
:100EDC000747012FEAD12B685C6926EA0404A4B207
:100EEC00003C18BF0124E9E70020BDE8F8830000AE
:100EFC00F0B583B004460D4616461F46C36A082B50
:100F0C000DD0012B0BD013F5803F08D0036B122BA7
:100F1C000AD10268136843F48073136004E02268FA
:100F2C00136843F4807313600097334600224FF02C
:100F3C0001112046FFF71BFF80B92369B3F5804FE1
:100F4C0016D1236805F0FE051D613B463246134958
:100F5C002046FFF761FFF8B903B0F0BD23681B68AA
:100F6C0013F4807F02D04FF4007323640320F3E763
:100F7C00EB11226803F0060343F0F00313613B46C8
:100F8C00324607492046FFF747FF18B92368EDB2F0
:100F9C001D61DAE70120DFE70120DDE70200010037
:100FAC000800010070B504460D46164623685B69BF
:100FBC0013F0800F21D12046FFF7C0FEF8B9B5F130
:100FCC00FF3FF3D0FFF7B8F9801BA84201D8002DE2
:100FDC00ECD123685B6913F0800FE7D10023236306
:100FEC00202284F83D2084F83E30226C42F020020E
:100FFC00226484F83C30012000E0002070BD012008
:10100C00FCE770B504460D46164623685B6913F081
:10101C00040F21D12046FFF791FEF8B9B5F1FF3F3F
:10102C00F3D0FFF789F9801BA84201D8002DECD131
:10103C0023685B6913F0040FE7D10023236320229C
:10104C0084F83D2084F83E30226C42F02002226469
:10105C0084F83C30012000E0002070BD0120FCE74A
:10106C00002800F0CC8070B5044690F83D30002B81
:10107C0077D0242384F83D302268136823F00103D1
:10108C0013602268136843F40043136022681368EA
:10109C0023F400431360FFF76DFC62685A4B9A42CD
:1010AC0064D85A4B98428CBF00230123002B40F08C
:1010BC00A8805749A1FB00318B0C25686A6822F087
:1010CC003F0242EA91426A6021680A6A22F03F02BA
:1010DC0066684D4DAE424FD8013313430B62216805
:1010EC00CA6922F44F4222F0FF026568464B9D42CA
:1010FC004CD8431E6D00B3FBF5F3013340F6FC7086
:10110C00034278D0C3F30B031A43CA6121680B68FE
:10111C0023F0C003E269206A024313430B60216889
:10112C008B6823F4034323F0FF032269E068024336
:10113C0013438B602168CB6823F0FF036269A069BD
:10114C0002431343CB602268136843F0010313601E
:10115C0000202064202384F83D30206384F83E0076
:10116C0070BD80F83C30FFF7ADFD82E7294B98420B
:10117C008CBF0023012399E74FF4967505FB03F30D
:10118C00254DA5FB03539B090133A6E7A668BEB901
:10119C00431E05EB450CB3FBFCF30133C3F30B030C
:1011AC00B3FA83F35B0943BBC6B9431E05EB450594
:1011BC00B3FBF5F30133C3F30B0343F40043A3E791
:1011CC00431E05EB850C0CEB8C0CB3FBFCF30133D1
:1011DC00C3F30B03B3FA83F35B09E4E7431E05EB9C
:1011EC00850505EB8505B3FBF5F30133C3F30B0361
:1011FC0043F4404388E7042386E7012384E7012076
:10120C0070470120ACE700BFA08601007F841E0060
:10121C0083DE1B43FF083D00D34D62102DE9F043E4
:10122C0085B004460F46914698460C9EFFF784F80D
:10123C00054694F83D00C0B2202804D00227384659
:10124C0005B0BDE8F0830095192301224F492046D3
:10125C00FFF78DFD002840F0928094F83C30012B74
:10126C0000F08F80012384F83C3023681A6812F058
:10127C00010F03D11A6842F001021A602268136848
:10128C0023F400631360212384F83D30102384F889
:10129C003E3000232364C4F82490A4F82A80638D84
:1012AC0023853B4BE3622B46324639462046FFF7FB
:1012BC001FFE0746002866D10023039323685A6952
:1012CC0003929B690393039B11E0236C042B01D0C5
:1012DC000127B4E72268136843F400731360F7E73F
:1012EC002A4631462046FFF78CFE00282ED1238D4E
:1012FC00002B36D02A4631462046FFF753FE0028F5
:10130C00E3D1626A236812781A61606A431C6362D3
:10131C00618D89B2013989B26185238D013B9BB204
:10132C0023852268516911F0040FD9D0002BD7D036
:10133C0043781361636A01336362638D9BB2013B33
:10134C009BB26385238D013B2385C9E7236C042B5A
:10135C0001D0012773E72268136843F4007313600C
:10136C00F7E72268136843F400731360202384F8B2
:10137C003D30002384F83E3084F83C305FE7022790
:10138C005DE702275BE7012759E700BF0200100069
:10139C000000FFFF00B583B002460B464FF0FF3153
:1013AC00009178210248FFF739FF03B05DF804FB88
:1013BC002C00002008B5034B587002211846FFF78B
:1013CC00E9FF08BD0801002008B58D20FFF7F2FFEA
:1013DC001420FFF7EFFFAF20FFF7ECFF08BD000074
:1013EC0008B54FF480620021014800F06CFA08BD8A
:1013FC000C01002038B5104B40221A70002418E064
:10140C00A4F15000C0B2FFF7D5FF0220FFF7D2FFC6
:10141C001020FFF7CFFF094D8022094901EBC411C1
:10142C00284600F07DFA8121681EFFF7B3FF0134D6
:10143C00E4B2072CE4D938BD8400002085000020DC
:10144C000C01002008B5C820FEF77CFFAE20FFF78A
:10145C00B1FF0220FFF7AEFF1020FFF7ABFF4020DB
:10146C00FFF7A8FFB020FFF7A5FF8120FFF7A2FF31
:10147C00CF20FFF79FFFA120FFF79CFFA620FFF7CF
:10148C0099FFA820FFF796FF3F20FFF793FFAD20B1
:10149C00FFF790FF8B20FFF78DFF3320FFF78AFFBC
:1014AC00C820FFF787FFD320FFF784FF0020FFF74A
:1014BC0081FFD520FFF77EFFC020FFF77BFFD920EF
:1014CC00FFF778FF1F20FFF775FFDA20FFF772FF99
:1014DC001220FFF76FFFDB20FFF76CFF4020FFF7B8
:1014EC0069FFFFF77DFFFFF785FFAF20FFF762FF76
:1014FC00FFF76AFFFFF774FF08BD000010F0800FC4
:10150C001FD13F291DD86AB9CA080E4B03EBC21371
:10151C001A5C01F007014FF0010C0CFA01F10A43BF
:10152C001A547047CB08074A02EBC31212F800C0DA
:10153C0001F0070101238B40DB435BB20CEA030390
:10154C00135470470C01002030B59DF8104007284B
:10155C002FD811F0800F2CD10CB1D243D2B29DF800
:10156C000C400134FF2505FA04F464B252B244EA8B
:10157C00020CC3F1080E45FA0EF54CEA050C5FFAA5
:10158C008CFC0C4D85F800C00B4B03EBC010435C7E
:10159C000CEA030C00F801C022EA04036FF0FF020E
:1015AC0042FA0EF21340DBB22B704CEA030C00F83B
:1015BC0001C030BD800000200C0100202DE9F0435B
:1015CC0083B0064690461C469DF82890CF0801F043
:1015DC0007052B44082B1EDDAA40CDF804900723E9
:1015EC0000932B46D2B201463846FFF7ADFFC5F14A
:1015FC00080248FA02F22C44E4B2CDF80490093CFB
:10160C00E4B200940023D2B23146781CFFF79CFF61
:10161C0003B0BDE8F083AA402C44E4B2CDF80490AA
:10162C00013CE4B200942B46D2B201463846FFF797
:10163C008BFFEDE72DE9F04182B006461546984642
:10164C00CF0801F00704A24001930723009323461F
:10165C00D2B201463846FFF777FF14B902B0BDE8A5
:10166C00F081C4F1080345FA03F2CDF80480013C83
:10167C00E4B200940023D2B23146781CFFF764FF29
:10168C00ECE72DE9F04F85B08046894692461E4620
:10169C009DF838309DF83CB0DF0803F00702029249
:1016AC000025039312E006FB045209EBC40105EB81
:1016BC0008005B461AF80220C9B2C0B2FFF7BAFFA5
:1016CC000134E4B2BC42EED30135EDB2B54201D2E5
:1016DC000024F7E7039B029ABAB106FB07F7002434
:1016EC001D4610E03A1925F00701494404EB0800A7
:1016FC00CDF800B0029B1AF80220C9B2C0B2FFF7B5
:10170C005DFF0134E4B2B442ECD305B0BDE8F08F18
:10171C002DE9F04F87B081468B461C460FFA82FAB2
:10172C005200C2F1030303930023019314E0019BC5
:10173C00A3EB0A03039A02EB83030A331BB2039352
:10174C000AF1FF3A0FFA8AFA0BEB0A0148442246D7
:10175C00C9B2C0B2FFF7D2FE019B53455BDC5FFA06
:10176C008AF6A9EB0603D8B29DF80450ABEB05073B
:10177C00FFB2224639460290FFF7C0FE06EB090382
:10178C00DAB2944622463946CDF810C06046FFF7CF
:10179C00B5FEA9EB05085FFA88F806EB0B03DAB285
:1017AC001146224605914046FFF7A8FE22463946CF
:1017BC000298FFF7A3FEABEB0606F6B222463146C3
:1017CC004046FFF79BFE05EB0B07FFB2224639465E
:1017DC000498FFF793FE4D44EDB22246314628465D
:1017EC00FFF78CFE224605992846FFF787FE224616
:1017FC0039460298FFF782FE019B013398B21BB267
:10180C000193039A002A92DA83009BB213440633A5
:10181C001BB2039398E7FFF7EDFD07B0BDE8F08F1F
:10182C0010B582B054780193009413785268FFF786
:10183C0028FFFFF7DFFD02B010BD000010B500243B
:10184C000BE0E200002302F0F80220214020FFF719
:10185C005FFFC820FEF776FD0134072CF1D9FFF7A6
:10186C00BFFDC820FEF76EFD0023034A01211E2098
:10187C00FFF7D6FF10BD00BF8C190008FFF702FA66
:10188C000B480C490C4A002302E0D458C4500433D2
:10189C00C4188C42F9D3094A094C002301E01360A7
:1018AC000432A242FBD300F017F8FEF7A3FC7047FA
:1018BC00000000200C000020A41B00080C000020DD
:1018CC000C050020FEE703460244934200D170470A
:1018DC0003F8011BF9E7000070B500260C4D0D4C08
:1018EC00641BA410A64209D100F028F800260A4D6A
:1018FC000A4C641BA410A64205D170BD55F8043BDC
:10190C0098470136EEE755F8043B98470136F2E765
:10191C009C1B00089C1B00089C1B0008A01B0008BB
:10192C000A44914200F1FF3300D1704710B511F811
:10193C00014B914203F8014FF9D110BDF8B500BF2E
:10194C00F8BC08BC9E467047F8B500BFF8BC08BC94
:04195C009E467047EC
:101960000102000002030405060708090A0B0C0D1A
:101970000E0F101000000000010203040000000020
:1019800000000000010203040607080941400000AE
:1019900094190008FFFFFFFFFFFFFFFFFFFFFFFF9E
:1019A000FFFFFFFFFFFFFFFFFFFFFFFFFFFFFFFF47
:1019B000FF7F1F0F0F0F1F3FFFFFFFFFFFFFFFFF07
:1019C000FFFFFFFFFFFFFFFFFFFFFFFFFFFFFFFF27
:1019D000FFFFFFFFFFFFFFFFFF7F7F7F7F3FBFDF37
:1019E000DFFFEFEFEFEFE7E7E7E7F7F7F73F0F0787
:1019F00063383C00000000002038FB070F1FF7F79A
:101A0000F7E7E7E7E7EFEFEFEFEFDFDFDF3F3F7FFE
:101A10007F7FFFFFFFFFFFFFFFFFFFFEFCF8F0707F
:101A20004F24232323C1C181810101010103070C3C
:101A30001870F00000187C180000F3F0703C1F0FC5
:101A4000070703030181C1C1414303044F0630F876
:101A5000FCFEFFFFFFFFFFFFFFFFFFFFFFFF010097
:101A6000000000000036E7CFBF7FFFFEF8F0E2661F
:101A70002E1C08000000000000C0F81F0E0C0E62B3
:101A8000F1F0F8FCFE7F3F9FC767020000000000F6
:101A900000FFFFFFFFFFFFFFFFFFFFFFFFFFFFFF55
:101AA000FCF0E0C0C0808000000181E10101018004
:101AB0008080C0406070180C7E7F090061604080AB
:101AC000808000010101C1C10100008080C0E0F000
:101AD000F8FEFFFFFFFFFFFFFFFFFFFFFFFFFFFF1E
:101AE000FFFFFFFFFFFFFFFFFDFCF88000F0FCFDA4
:101AF000FFFFFFFFFEFCF1C00000000080F1FCFED4
:101B0000FFFFFFFFFDFCF80000F8FDFDFFFFFFFFFA
:101B1000FFFFFFFFFFFFFFFFFFFFFFFFFFFFFFFFD5
:101B2000FFFFFFFFFFFFFFFFFFFFFFFFFFF0FFFFD4
:101B3000FFFFFFFFFFFFFFFFFFF80000F0FFFFFFC9
:101B4000FFFFFFFFFFFFFFFFFCFEFFFFFFFFFFFFA9
:101B5000FFFFFFFFFFFFFFFFFFFFFFFFFFFFFFFF95
:101B6000FFFFFFFFFFFFFFFFFFFFFFFFFFFFFFFF85
:101B7000FFFFFFFFFFFFFFFFFFFFFFFCFCFFFFFF7B
:101B8000FFFFFFFFFFFFFFFFFFFFFFFFFFFFFFFF65
:0C1B9000FFFFFFFFFFFFFFFFFFFFFFFF55
:041B9C0075010008C7
:041BA0004D010008EB
:0C1BA400010000001000000000127A0098
:04000005080018894E
:00000001FF
